{
  "_format": "hh-sol-artifact-1",
  "contractName": "MultiLevelAccount",
  "sourceName": "contracts/core/MultiLevelAccount.sol",
  "abi": [
    {
      "inputs": [
        {
          "internalType": "contract IEntryPoint",
          "name": "_entryPoint",
          "type": "address"
        },
        {
          "internalType": "address",
          "name": "_owner",
          "type": "address"
        }
      ],
      "stateMutability": "nonpayable",
      "type": "constructor"
    },
    {
      "inputs": [],
      "name": "ECDSAInvalidSignature",
      "type": "error"
    },
    {
      "inputs": [
        {
          "internalType": "uint256",
          "name": "length",
          "type": "uint256"
        }
      ],
      "name": "ECDSAInvalidSignatureLength",
      "type": "error"
    },
    {
      "inputs": [
        {
          "internalType": "bytes32",
          "name": "s",
          "type": "bytes32"
        }
      ],
      "name": "ECDSAInvalidSignatureS",
      "type": "error"
    },
    {
      "inputs": [],
      "name": "InvalidAmount",
      "type": "error"
    },
    {
      "inputs": [],
      "name": "InvalidConfiguration",
      "type": "error"
    },
    {
      "inputs": [],
      "name": "InvalidSignature",
      "type": "error"
    },
    {
      "inputs": [],
      "name": "LevelMismatch",
      "type": "error"
    },
    {
      "inputs": [],
      "name": "NoConfigForAmount",
      "type": "error"
    },
    {
      "inputs": [],
      "name": "NotFullyApproved",
      "type": "error"
    },
    {
      "inputs": [],
      "name": "OnlyEntryPoint",
      "type": "error"
    },
    {
      "inputs": [
        {
          "internalType": "address",
          "name": "owner",
          "type": "address"
        }
      ],
      "name": "OwnableInvalidOwner",
      "type": "error"
    },
    {
      "inputs": [
        {
          "internalType": "address",
          "name": "account",
          "type": "address"
        }
      ],
      "name": "OwnableUnauthorizedAccount",
      "type": "error"
    },
    {
      "inputs": [
        {
          "internalType": "bytes",
          "name": "returnData",
          "type": "bytes"
        }
      ],
      "name": "TransactionFailed",
      "type": "error"
    },
    {
      "inputs": [],
      "name": "Unauthorized",
      "type": "error"
    },
    {
      "anonymous": false,
      "inputs": [
        {
          "indexed": true,
          "internalType": "uint256",
          "name": "index",
          "type": "uint256"
        },
        {
          "indexed": false,
          "internalType": "uint256",
          "name": "minAmount",
          "type": "uint256"
        },
        {
          "indexed": false,
          "internalType": "uint256",
          "name": "maxAmount",
          "type": "uint256"
        },
        {
          "indexed": false,
          "internalType": "uint256[]",
          "name": "levelIds",
          "type": "uint256[]"
        }
      ],
      "name": "AmountRangeConfigured",
      "type": "event"
    },
    {
      "anonymous": false,
      "inputs": [
        {
          "indexed": true,
          "internalType": "uint256",
          "name": "levelId",
          "type": "uint256"
        },
        {
          "indexed": true,
          "internalType": "address",
          "name": "levelAddress",
          "type": "address"
        }
      ],
      "name": "LevelAdded",
      "type": "event"
    },
    {
      "anonymous": false,
      "inputs": [
        {
          "indexed": true,
          "internalType": "bytes32",
          "name": "txHash",
          "type": "bytes32"
        },
        {
          "indexed": true,
          "internalType": "uint256",
          "name": "levelId",
          "type": "uint256"
        },
        {
          "indexed": false,
          "internalType": "uint256",
          "name": "currentIndex",
          "type": "uint256"
        }
      ],
      "name": "LevelCompleted",
      "type": "event"
    },
    {
      "anonymous": false,
      "inputs": [
        {
          "indexed": true,
          "internalType": "address",
          "name": "previousOwner",
          "type": "address"
        },
        {
          "indexed": true,
          "internalType": "address",
          "name": "newOwner",
          "type": "address"
        }
      ],
      "name": "OwnershipTransferred",
      "type": "event"
    },
    {
      "anonymous": false,
      "inputs": [
        {
          "indexed": true,
          "internalType": "bytes32",
          "name": "txHash",
          "type": "bytes32"
        }
      ],
      "name": "ReadyForExecution",
      "type": "event"
    },
    {
      "anonymous": false,
      "inputs": [
        {
          "indexed": true,
          "internalType": "bytes32",
          "name": "txHash",
          "type": "bytes32"
        },
        {
          "indexed": true,
          "internalType": "uint256",
          "name": "levelId",
          "type": "uint256"
        },
        {
          "indexed": true,
          "internalType": "address",
          "name": "denier",
          "type": "address"
        }
      ],
      "name": "TransactionDenied",
      "type": "event"
    },
    {
      "anonymous": false,
      "inputs": [
        {
          "indexed": true,
          "internalType": "bytes32",
          "name": "txHash",
          "type": "bytes32"
        },
        {
          "indexed": true,
          "internalType": "address",
          "name": "to",
          "type": "address"
        },
        {
          "indexed": false,
          "internalType": "uint256",
          "name": "value",
          "type": "uint256"
        }
      ],
      "name": "TransactionExecuted",
      "type": "event"
    },
    {
      "anonymous": false,
      "inputs": [
        {
          "indexed": true,
          "internalType": "bytes32",
          "name": "txHash",
          "type": "bytes32"
        },
        {
          "indexed": true,
          "internalType": "address",
          "name": "to",
          "type": "address"
        },
        {
          "indexed": false,
          "internalType": "uint256",
          "name": "value",
          "type": "uint256"
        },
        {
          "indexed": false,
          "internalType": "uint256",
          "name": "amount",
          "type": "uint256"
        },
        {
          "indexed": false,
          "internalType": "uint256[]",
          "name": "levelIds",
          "type": "uint256[]"
        },
        {
          "indexed": false,
          "internalType": "uint256[]",
          "name": "quorums",
          "type": "uint256[]"
        }
      ],
      "name": "TransactionProposed",
      "type": "event"
    },
    {
      "inputs": [
        {
          "internalType": "address",
          "name": "levelAddress",
          "type": "address"
        }
      ],
      "name": "addLevel",
      "outputs": [
        {
          "internalType": "uint256",
          "name": "levelId",
          "type": "uint256"
        }
      ],
      "stateMutability": "nonpayable",
      "type": "function"
    },
    {
      "inputs": [
        {
          "internalType": "uint256",
          "name": "",
          "type": "uint256"
        }
      ],
      "name": "amountRanges",
      "outputs": [
        {
          "internalType": "uint256",
          "name": "minAmount",
          "type": "uint256"
        },
        {
          "internalType": "uint256",
          "name": "maxAmount",
          "type": "uint256"
        }
      ],
      "stateMutability": "view",
      "type": "function"
    },
    {
      "inputs": [
        {
          "internalType": "uint256",
          "name": "minAmount",
          "type": "uint256"
        },
        {
          "internalType": "uint256",
          "name": "maxAmount",
          "type": "uint256"
        },
        {
          "internalType": "uint256[]",
          "name": "levelIds",
          "type": "uint256[]"
        },
        {
          "internalType": "uint256[]",
          "name": "quorums",
          "type": "uint256[]"
        },
        {
          "internalType": "uint256[]",
          "name": "timelocks",
          "type": "uint256[]"
        }
      ],
      "name": "configureAmountRange",
      "outputs": [],
      "stateMutability": "nonpayable",
      "type": "function"
    },
    {
      "inputs": [
        {
          "internalType": "bytes32",
          "name": "",
          "type": "bytes32"
        }
      ],
      "name": "currentLevelIndex",
      "outputs": [
        {
          "internalType": "uint256",
          "name": "",
          "type": "uint256"
        }
      ],
      "stateMutability": "view",
      "type": "function"
    },
    {
      "inputs": [],
      "name": "entryPoint",
      "outputs": [
        {
          "internalType": "contract IEntryPoint",
          "name": "",
          "type": "address"
        }
      ],
      "stateMutability": "view",
      "type": "function"
    },
    {
      "inputs": [
        {
          "internalType": "address",
          "name": "to",
          "type": "address"
        },
        {
          "internalType": "uint256",
          "name": "value",
          "type": "uint256"
        },
        {
          "internalType": "bytes",
          "name": "data",
          "type": "bytes"
        },
        {
          "internalType": "uint256",
          "name": "amount",
          "type": "uint256"
        }
      ],
      "name": "execute",
      "outputs": [],
      "stateMutability": "nonpayable",
      "type": "function"
    },
    {
      "inputs": [
        {
          "internalType": "bytes32",
          "name": "txHash",
          "type": "bytes32"
        }
      ],
      "name": "executeApprovedTransaction",
      "outputs": [],
      "stateMutability": "nonpayable",
      "type": "function"
    },
    {
      "inputs": [
        {
          "internalType": "address[]",
          "name": "",
          "type": "address[]"
        },
        {
          "internalType": "uint256[]",
          "name": "",
          "type": "uint256[]"
        },
        {
          "internalType": "bytes[]",
          "name": "",
          "type": "bytes[]"
        },
        {
          "internalType": "uint256[]",
          "name": "",
          "type": "uint256[]"
        }
      ],
      "name": "executeBatch",
      "outputs": [],
      "stateMutability": "pure",
      "type": "function"
    },
    {
      "inputs": [
        {
          "internalType": "bytes32",
          "name": "",
          "type": "bytes32"
        }
      ],
      "name": "fullyApproved",
      "outputs": [
        {
          "internalType": "bool",
          "name": "",
          "type": "bool"
        }
      ],
      "stateMutability": "view",
      "type": "function"
    },
    {
      "inputs": [
        {
          "internalType": "uint256",
          "name": "index",
          "type": "uint256"
        }
      ],
      "name": "getAmountRange",
      "outputs": [
        {
          "components": [
            {
              "internalType": "uint256",
              "name": "minAmount",
              "type": "uint256"
            },
            {
              "internalType": "uint256",
              "name": "maxAmount",
              "type": "uint256"
            },
            {
              "internalType": "uint256[]",
              "name": "levelIds",
              "type": "uint256[]"
            },
            {
              "internalType": "uint256[]",
              "name": "quorums",
              "type": "uint256[]"
            },
            {
              "internalType": "uint256[]",
              "name": "timelocks",
              "type": "uint256[]"
            }
          ],
          "internalType": "struct MultiLevelAccount.AmountRange",
          "name": "",
          "type": "tuple"
        }
      ],
      "stateMutability": "view",
      "type": "function"
    },
    {
      "inputs": [],
      "name": "getAmountRangeCount",
      "outputs": [
        {
          "internalType": "uint256",
          "name": "",
          "type": "uint256"
        }
      ],
      "stateMutability": "view",
      "type": "function"
    },
    {
      "inputs": [
        {
          "internalType": "uint256",
          "name": "amount",
          "type": "uint256"
        }
      ],
      "name": "getConfigForAmount",
      "outputs": [
        {
          "components": [
            {
              "internalType": "uint256",
              "name": "minAmount",
              "type": "uint256"
            },
            {
              "internalType": "uint256",
              "name": "maxAmount",
              "type": "uint256"
            },
            {
              "internalType": "uint256[]",
              "name": "levelIds",
              "type": "uint256[]"
            },
            {
              "internalType": "uint256[]",
              "name": "quorums",
              "type": "uint256[]"
            },
            {
              "internalType": "uint256[]",
              "name": "timelocks",
              "type": "uint256[]"
            }
          ],
          "internalType": "struct MultiLevelAccount.AmountRange",
          "name": "config",
          "type": "tuple"
        }
      ],
      "stateMutability": "view",
      "type": "function"
    },
    {
      "inputs": [
        {
          "internalType": "bytes32",
          "name": "txHash",
          "type": "bytes32"
        }
      ],
      "name": "getTransaction",
      "outputs": [
        {
          "components": [
            {
              "internalType": "address",
              "name": "to",
              "type": "address"
            },
            {
              "internalType": "uint256",
              "name": "value",
              "type": "uint256"
            },
            {
              "internalType": "bytes",
              "name": "data",
              "type": "bytes"
            },
            {
              "internalType": "uint256",
              "name": "amount",
              "type": "uint256"
            },
            {
              "internalType": "uint256",
              "name": "proposedAt",
              "type": "uint256"
            },
            {
              "components": [
                {
                  "internalType": "uint256",
                  "name": "minAmount",
                  "type": "uint256"
                },
                {
                  "internalType": "uint256",
                  "name": "maxAmount",
                  "type": "uint256"
                },
                {
                  "internalType": "uint256[]",
                  "name": "levelIds",
                  "type": "uint256[]"
                },
                {
                  "internalType": "uint256[]",
                  "name": "quorums",
                  "type": "uint256[]"
                },
                {
                  "internalType": "uint256[]",
                  "name": "timelocks",
                  "type": "uint256[]"
                }
              ],
              "internalType": "struct MultiLevelAccount.AmountRange",
              "name": "config",
              "type": "tuple"
            }
          ],
          "internalType": "struct MultiLevelAccount.Transaction",
          "name": "",
          "type": "tuple"
        }
      ],
      "stateMutability": "view",
      "type": "function"
    },
    {
      "inputs": [
        {
          "internalType": "uint256",
          "name": "",
          "type": "uint256"
        }
      ],
      "name": "levelContracts",
      "outputs": [
        {
          "internalType": "address",
          "name": "",
          "type": "address"
        }
      ],
      "stateMutability": "view",
      "type": "function"
    },
    {
      "inputs": [],
      "name": "nextLevelId",
      "outputs": [
        {
          "internalType": "uint256",
          "name": "",
          "type": "uint256"
        }
      ],
      "stateMutability": "view",
      "type": "function"
    },
    {
      "inputs": [],
      "name": "nonce",
      "outputs": [
        {
          "internalType": "uint256",
          "name": "",
          "type": "uint256"
        }
      ],
      "stateMutability": "view",
      "type": "function"
    },
    {
      "inputs": [
        {
          "internalType": "bytes32",
          "name": "txHash",
          "type": "bytes32"
        },
        {
          "internalType": "uint256",
          "name": "levelId",
          "type": "uint256"
        }
      ],
      "name": "onLevelApproved",
      "outputs": [],
      "stateMutability": "nonpayable",
      "type": "function"
    },
    {
      "inputs": [
        {
          "internalType": "bytes32",
          "name": "txHash",
          "type": "bytes32"
        },
        {
          "internalType": "uint256",
          "name": "levelId",
          "type": "uint256"
        },
        {
          "internalType": "address",
          "name": "denier",
          "type": "address"
        }
      ],
      "name": "onLevelDenied",
      "outputs": [],
      "stateMutability": "nonpayable",
      "type": "function"
    },
    {
      "inputs": [],
      "name": "owner",
      "outputs": [
        {
          "internalType": "address",
          "name": "",
          "type": "address"
        }
      ],
      "stateMutability": "view",
      "type": "function"
    },
    {
      "inputs": [
        {
          "internalType": "uint256",
          "name": "index",
          "type": "uint256"
        }
      ],
      "name": "removeAmountRange",
      "outputs": [],
      "stateMutability": "nonpayable",
      "type": "function"
    },
    {
      "inputs": [],
      "name": "renounceOwnership",
      "outputs": [],
      "stateMutability": "nonpayable",
      "type": "function"
    },
    {
      "inputs": [
        {
          "internalType": "bytes32",
          "name": "",
          "type": "bytes32"
        }
      ],
      "name": "transactions",
      "outputs": [
        {
          "internalType": "address",
          "name": "to",
          "type": "address"
        },
        {
          "internalType": "uint256",
          "name": "value",
          "type": "uint256"
        },
        {
          "internalType": "bytes",
          "name": "data",
          "type": "bytes"
        },
        {
          "internalType": "uint256",
          "name": "amount",
          "type": "uint256"
        },
        {
          "internalType": "uint256",
          "name": "proposedAt",
          "type": "uint256"
        },
        {
          "components": [
            {
              "internalType": "uint256",
              "name": "minAmount",
              "type": "uint256"
            },
            {
              "internalType": "uint256",
              "name": "maxAmount",
              "type": "uint256"
            },
            {
              "internalType": "uint256[]",
              "name": "levelIds",
              "type": "uint256[]"
            },
            {
              "internalType": "uint256[]",
              "name": "quorums",
              "type": "uint256[]"
            },
            {
              "internalType": "uint256[]",
              "name": "timelocks",
              "type": "uint256[]"
            }
          ],
          "internalType": "struct MultiLevelAccount.AmountRange",
          "name": "config",
          "type": "tuple"
        }
      ],
      "stateMutability": "view",
      "type": "function"
    },
    {
      "inputs": [
        {
          "internalType": "address",
          "name": "newOwner",
          "type": "address"
        }
      ],
      "name": "transferOwnership",
      "outputs": [],
      "stateMutability": "nonpayable",
      "type": "function"
    },
    {
      "inputs": [
        {
          "internalType": "uint256",
          "name": "levelId",
          "type": "uint256"
        },
        {
          "internalType": "address",
          "name": "newAddress",
          "type": "address"
        }
      ],
      "name": "updateLevel",
      "outputs": [],
      "stateMutability": "nonpayable",
      "type": "function"
    },
    {
      "inputs": [
        {
          "components": [
            {
              "internalType": "address",
              "name": "sender",
              "type": "address"
            },
            {
              "internalType": "uint256",
              "name": "nonce",
              "type": "uint256"
            },
            {
              "internalType": "bytes",
              "name": "initCode",
              "type": "bytes"
            },
            {
              "internalType": "bytes",
              "name": "callData",
              "type": "bytes"
            },
            {
              "internalType": "bytes32",
              "name": "accountGasLimits",
              "type": "bytes32"
            },
            {
              "internalType": "uint256",
              "name": "preVerificationGas",
              "type": "uint256"
            },
            {
              "internalType": "bytes32",
              "name": "gasFees",
              "type": "bytes32"
            },
            {
              "internalType": "bytes",
              "name": "paymasterAndData",
              "type": "bytes"
            },
            {
              "internalType": "bytes",
              "name": "signature",
              "type": "bytes"
            }
          ],
          "internalType": "struct PackedUserOperation",
          "name": "userOp",
          "type": "tuple"
        },
        {
          "internalType": "bytes32",
          "name": "userOpHash",
          "type": "bytes32"
        },
        {
          "internalType": "uint256",
          "name": "missingAccountFunds",
          "type": "uint256"
        }
      ],
      "name": "validateUserOp",
      "outputs": [
        {
          "internalType": "uint256",
          "name": "validationData",
          "type": "uint256"
        }
      ],
      "stateMutability": "nonpayable",
      "type": "function"
    },
    {
      "stateMutability": "payable",
      "type": "receive"
    }
  ],
  "bytecode": "0x60a060405234801561001057600080fd5b5060405161314138038061314183398101604081905261002f916100ec565b806001600160a01b03811661005e57604051631e4fbdf760e01b81526000600482015260240160405180910390fd5b61006781610084565b50506001600160a01b031660805260006001908155600455610126565b600080546001600160a01b038381166001600160a01b0319831681178455604051919092169283917f8be0079c531659141344cd1fd0a4f28419497f9722a3daafe3b4186f6b6457e09190a35050565b6001600160a01b03811681146100e957600080fd5b50565b600080604083850312156100ff57600080fd5b825161010a816100d4565b602084015190925061011b816100d4565b809150509250929050565b608051612ff261014f60003960008181610407015281816105e90152610cc00152612ff26000f3fe60806040526004361061016a5760003560e01c8063805272ab116100d1578063b13101de1161008a578063d4157d2911610064578063d4157d2914610489578063ded2a0e91461049e578063e5a2856e146104d3578063f2fde38b1461051357600080fd5b8063b13101de14610429578063c3cca0cc14610449578063c92b80cc1461046957600080fd5b8063805272ab146103545780638da5cb5b14610374578063907277fe146103925780639d16b326146103b2578063affed0e0146103df578063b0d691fe146103f557600080fd5b8063642f2eaf11610123578063642f2eaf14610297578063715018a6146102c957806374420f4c146102de57806375ce029f146102fe5780637a9b5cc6146103145780637f7692441461033457600080fd5b80630edcc4581461017657806315edc938146101ac57806319822f7c146101ce57806334c80283146101fc57806343126f141461024a5780634aae13ca1461026a57600080fd5b3661017157005b600080fd5b34801561018257600080fd5b50610196610191366004612795565b610533565b6040516101a3919061284f565b60405180910390f35b3480156101b857600080fd5b506101cc6101c736600461287e565b61054a565b005b3480156101da57600080fd5b506101ee6101e93660046128aa565b6105dc565b6040519081526020016101a3565b34801561020857600080fd5b50610232610217366004612795565b6003602052600090815260409020546001600160a01b031681565b6040516001600160a01b0390911681526020016101a3565b34801561025657600080fd5b506101cc6102653660046128fd565b610780565b34801561027657600080fd5b5061028a610285366004612795565b610896565b6040516101a39190612982565b3480156102a357600080fd5b506102b76102b2366004612795565b610ab4565b6040516101a3969594939291906129eb565b3480156102d557600080fd5b506101cc610ca1565b3480156102ea57600080fd5b506101cc6102f9366004612a3d565b610cb5565b34801561030a57600080fd5b506101ee60045481565b34801561032057600080fd5b506101cc61032f366004612b18565b610fb2565b34801561034057600080fd5b506101cc61034f366004612795565b611211565b34801561036057600080fd5b506101cc61036f366004612795565b6115ce565b34801561038057600080fd5b506000546001600160a01b0316610232565b34801561039e57600080fd5b506101cc6103ad366004612bce565b611708565b3480156103be57600080fd5b506101ee6103cd366004612795565b60066020526000908152604090205481565b3480156103eb57600080fd5b506101ee60015481565b34801561040157600080fd5b506102327f000000000000000000000000000000000000000000000000000000000000000081565b34801561043557600080fd5b50610196610444366004612795565b611742565b34801561045557600080fd5b506101ee610464366004612c81565b611899565b34801561047557600080fd5b506101cc610484366004612c9c565b611939565b34801561049557600080fd5b506002546101ee565b3480156104aa57600080fd5b506104be6104b9366004612795565b611dc2565b604080519283526020830191909152016101a3565b3480156104df57600080fd5b506105036104ee366004612795565b60076020526000908152604090205460ff1681565b60405190151581526020016101a3565b34801561051f57600080fd5b506101cc61052e366004612c81565b611df0565b61053b61262a565b61054482611e2b565b92915050565b61055261200e565b6000828152600360205260409020546001600160a01b03166105875760405163c52a9bd360e01b815260040160405180910390fd5b6001600160a01b0381166105ae5760405163c52a9bd360e01b815260040160405180910390fd5b60009182526003602052604090912080546001600160a01b0319166001600160a01b03909216919091179055565b6000336001600160a01b037f000000000000000000000000000000000000000000000000000000000000000016146106275760405163bd07c55160e01b815260040160405180910390fd5b7f19457468657265756d205369676e6564204d6573736167653a0a3332000000006000908152601c849052603c8120906106a5610668610100880188612cbe565b8080601f016020809104026020016040519081016040528093929190818152602001838380828437600092019190915250869392505061203b9050565b90506106b96000546001600160a01b031690565b6001600160a01b0316816001600160a01b0316146106dc57600192505050610779565b831561077257604051600090339086908381818185875af1925050503d8060008114610724576040519150601f19603f3d011682016040523d82523d6000602084013e610729565b606091505b50509050806107705760405162461bcd60e51b815260206004820152600e60248201526d141c99599d5b990819985a5b195960921b60448201526064015b60405180910390fd5b505b6000925050505b9392505050565b60008281526003602052604090205482906001600160a01b031633146107b8576040516282b42960e81b815260040160405180910390fd5b816001600160a01b031683857f6370090a8d64d1375d22094146275031ce9bfa1e1ab2cbbf957f0ddb1290e14060405160405180910390a4600084815260056020526040812080546001600160a01b031916815560018101829055906108216002830182612659565b6000600383018190556004830181905560058301818155600684018290559061084d6007850182612693565b61085b600383016000612693565b610869600483016000612693565b505050600094855250506006602090815260408085208590556007909152909220805460ff191690555050565b61089e6126b1565b600082815260056020908152604091829020825160c08101845281546001600160a01b0316815260018201549281019290925260028101805492939192918401916108e890612d04565b80601f016020809104026020016040519081016040528092919081815260200182805461091490612d04565b80156109615780601f1061093657610100808354040283529160200191610961565b820191906000526020600020905b81548152906001019060200180831161094457829003601f168201915b505050505081526020016003820154815260200160048201548152602001600582016040518060a00160405290816000820154815260200160018201548152602001600282018054806020026020016040519081016040528092919081815260200182805480156109f157602002820191906000526020600020905b8154815260200190600101908083116109dd575b5050505050815260200160038201805480602002602001604051908101604052809291908181526020018280548015610a4957602002820191906000526020600020905b815481526020019060010190808311610a35575b5050505050815260200160048201805480602002602001604051908101604052809291908181526020018280548015610aa157602002820191906000526020600020905b815481526020019060010190808311610a8d575b5050509190925250505090525092915050565b6005602052600090815260409020805460018201546002830180546001600160a01b03909316939192610ae690612d04565b80601f0160208091040260200160405190810160405280929190818152602001828054610b1290612d04565b8015610b5f5780601f10610b3457610100808354040283529160200191610b5f565b820191906000526020600020905b815481529060010190602001808311610b4257829003601f168201915b505050505090806003015490806004015490806005016040518060a0016040529081600082015481526020016001820154815260200160028201805480602002602001604051908101604052809291908181526020018280548015610be357602002820191906000526020600020905b815481526020019060010190808311610bcf575b5050505050815260200160038201805480602002602001604051908101604052809291908181526020018280548015610c3b57602002820191906000526020600020905b815481526020019060010190808311610c27575b5050505050815260200160048201805480602002602001604051908101604052809291908181526020018280548015610c9357602002820191906000526020600020905b815481526020019060010190808311610c7f575b505050505081525050905086565b610ca961200e565b610cb36000612065565b565b336001600160a01b037f00000000000000000000000000000000000000000000000000000000000000001614610cfe5760405163bd07c55160e01b815260040160405180910390fd5b6000610d0d86868686866120b5565b90506000610d1a83611e2b565b90506040518060c00160405280886001600160a01b0316815260200187815260200186868080601f016020809104026020016040519081016040528093929190818152602001838380828437600092018290525093855250505060208083018790524260408085019190915260609093018590528582526005815290829020835181546001600160a01b0319166001600160a01b03909116178155908301516001820155908201516002820190610dd19082612da3565b50606082015160038201556080820151600482015560a0820151805160058301908155602080830151600685015560408301518051610e1692600787019201906126f5565b5060608201518051610e329160038401916020909101906126f5565b5060808201518051610e4e9160048401916020909101906126f5565b5050506000848152600660205260408082209190915583810151606085015191516001600160a01b038c1694508693507fdf06b71717a5d709e933f6b62bee920c2d669d883931248f5f30e186ab95bacb92610eae928c928a9290612e61565b60405180910390a3600360008260400151600081518110610ed157610ed1612e9d565b6020026020010151815260200190815260200160002060009054906101000a90046001600160a01b03166001600160a01b03166326e7feae838360600151600081518110610f2157610f21612e9d565b60200260200101518460800151600081518110610f4057610f40612e9d565b60200260200101516040518463ffffffff1660e01b8152600401610f77939291909283526020830191909152604082015260600190565b600060405180830381600087803b158015610f9157600080fd5b505af1158015610fa5573d6000803e3d6000fd5b5050505050505050505050565b610fba61200e565b8483141580610fc95750848114155b15610fe75760405163c52a9bd360e01b815260040160405180910390fd5b868811156110085760405163c52a9bd360e01b815260040160405180910390fd5b60005b8581101561107357600060038189898581811061102a5761102a612e9d565b60209081029290920135835250810191909152604001600020546001600160a01b03160361106b5760405163c52a9bd360e01b815260040160405180910390fd5b60010161100b565b5060026040518060a001604052808a815260200189815260200188888080602002602001604051908101604052809392919081815260200183836020028082843760009201919091525050509082525060408051602088810282810182019093528882529283019290918991899182918501908490808284376000920191909152505050908252506040805160208681028281018201909352868252928301929091879187918291850190849080828437600092018290525093909452505083546001818101865594825260209182902084516005909202019081558184015194810194909455604083015180519394936111789350600285019291909101906126f5565b50606082015180516111949160038401916020909101906126f5565b50608082015180516111b09160048401916020909101906126f5565b5050506111bb612155565b6002546111ca90600190612ec9565b7ffb9b5a5ade9b7863c7f2246c58142dbbab6e9f1a94dbf6589d808b716a07d583898989896040516111ff9493929190612edc565b60405180910390a25050505050505050565b60008181526007602052604090205460ff16611240576040516302355d7f60e51b815260040160405180910390fd5b6000818152600560209081526040808320815160c08101835281546001600160a01b03168152600182015493810193909352600281018054919284019161128690612d04565b80601f01602080910402602001604051908101604052809291908181526020018280546112b290612d04565b80156112ff5780601f106112d4576101008083540402835291602001916112ff565b820191906000526020600020905b8154815290600101906020018083116112e257829003601f168201915b505050505081526020016003820154815260200160048201548152602001600582016040518060a001604052908160008201548152602001600182015481526020016002820180548060200260200160405190810160405280929190818152602001828054801561138f57602002820191906000526020600020905b81548152602001906001019080831161137b575b50505050508152602001600382018054806020026020016040519081016040528092919081815260200182805480156113e757602002820191906000526020600020905b8154815260200190600101908083116113d3575b505050505081526020016004820180548060200260200160405190810160405280929190818152602001828054801561143f57602002820191906000526020600020905b81548152602001906001019080831161142b575b50505091909252505050905250600083815260056020526040812080546001600160a01b03191681556001810182905591925061147f6002830182612659565b600060038301819055600483018190556005830181815560068401829055906114ab6007850182612693565b6114b9600383016000612693565b6114c7600483016000612693565b505050600083815260066020908152604080832083905560078252808320805460ff1916905584519185015185820151915193945084936001600160a01b0390931692909161151591612f25565b60006040518083038185875af1925050503d8060008114611552576040519150601f19603f3d011682016040523d82523d6000602084013e611557565b606091505b50915091508161157c578060405163fe3c766760e01b81526004016107679190612f41565b82600001516001600160a01b0316847ff428004d3339c4a2d18a1bb05bf349f4a610100cde4d4dccde22bff25664c4fa85602001516040516115c091815260200190565b60405180910390a350505050565b6115d661200e565b60025481106115f85760405163c52a9bd360e01b815260040160405180910390fd5b6002805461160890600190612ec9565b8154811061161857611618612e9d565b90600052602060002090600502016002828154811061163957611639612e9d565b906000526020600020906005020160008201548160000155600182015481600101556002820181600201908054611671929190612740565b50600382810180546116869284019190612740565b506004828101805461169b9284019190612740565b5090505060028054806116b0576116b0612f54565b60008281526020812060056000199093019283020181815560018101829055906116dd6002830182612693565b6116eb600383016000612693565b6116f9600483016000612693565b50509055611705612155565b50565b60405162461bcd60e51b815260206004820152600f60248201526e139bdd081a5b5c1b195b595b9d1959608a1b6044820152606401610767565b61174a61262a565b6002828154811061175d5761175d612e9d565b90600052602060002090600502016040518060a00160405290816000820154815260200160018201548152602001600282018054806020026020016040519081016040528092919081815260200182805480156117d957602002820191906000526020600020905b8154815260200190600101908083116117c5575b505050505081526020016003820180548060200260200160405190810160405280929190818152602001828054801561183157602002820191906000526020600020905b81548152602001906001019080831161181d575b505050505081526020016004820180548060200260200160405190810160405280929190818152602001828054801561188957602002820191906000526020600020905b815481526020019060010190808311611875575b5050505050815250509050919050565b60006118a361200e565b6001600160a01b0382166118ca5760405163c52a9bd360e01b815260040160405180910390fd5b600480549060006118da83612f6a565b9091555060008181526003602052604080822080546001600160a01b0319166001600160a01b03871690811790915590519293509183917f15398c29f32760bcf71d4106c1b80e5b16dca94748defcf13890b72c4993b24b91a3919050565b60008181526003602052604090205481906001600160a01b03163314611971576040516282b42960e81b815260040160405180910390fd5b6000838152600560209081526040808320815160c08101835281546001600160a01b0316815260018201549381019390935260028101805491928401916119b790612d04565b80601f01602080910402602001604051908101604052809291908181526020018280546119e390612d04565b8015611a305780601f10611a0557610100808354040283529160200191611a30565b820191906000526020600020905b815481529060010190602001808311611a1357829003601f168201915b505050505081526020016003820154815260200160048201548152602001600582016040518060a0016040529081600082015481526020016001820154815260200160028201805480602002602001604051908101604052809291908181526020018280548015611ac057602002820191906000526020600020905b815481526020019060010190808311611aac575b5050505050815260200160038201805480602002602001604051908101604052809291908181526020018280548015611b1857602002820191906000526020600020905b815481526020019060010190808311611b04575b5050505050815260200160048201805480602002602001604051908101604052809291908181526020018280548015611b7057602002820191906000526020600020905b815481526020019060010190808311611b5c575b505050505081525050815250509050828160a0015160400151600660008781526020019081526020016000205481518110611bad57611bad612e9d565b602002602001015114611bd35760405163151d482b60e01b815260040160405180910390fd5b6000848152600660205260408120805491611bed83612f6a565b919050555082847f811acc02140d0988fc23b2ee64f85c15f478521c431ee2a48e233730a4a5f10d6006600088815260200190815260200160002054604051611c3891815260200190565b60405180910390a360a0810151604090810151516000868152600660205291909120541015611d7b576000848152600660205260408082205460a084015190910151805191929183908110611c8f57611c8f612e9d565b602002602001015190506003600082815260200190815260200160002060009054906101000a90046001600160a01b03166001600160a01b03166326e7feae878560a00151606001518581518110611ce957611ce9612e9d565b60200260200101518660a00151608001518681518110611d0b57611d0b612e9d565b60200260200101516040518463ffffffff1660e01b8152600401611d42939291909283526020830191909152604082015260600190565b600060405180830381600087803b158015611d5c57600080fd5b505af1158015611d70573d6000803e3d6000fd5b505050505050611dbc565b600084815260076020526040808220805460ff191660011790555185917f217cbd18b9771ab7a8319464fa4ce7e85e3ea2b41b553ebbb317bbc4ba39d0a891a25b50505050565b60028181548110611dd257600080fd5b60009182526020909120600590910201805460019091015490915082565b611df861200e565b6001600160a01b038116611e2257604051631e4fbdf760e01b815260006004820152602401610767565b61170581612065565b611e3361262a565b60005b600254811015611ff55760028181548110611e5357611e53612e9d565b9060005260206000209060050201600001548310158015611e98575060028181548110611e8257611e82612e9d565b9060005260206000209060050201600101548311155b15611fed5760028181548110611eb057611eb0612e9d565b90600052602060002090600502016040518060a0016040529081600082015481526020016001820154815260200160028201805480602002602001604051908101604052809291908181526020018280548015611f2c57602002820191906000526020600020905b815481526020019060010190808311611f18575b5050505050815260200160038201805480602002602001604051908101604052809291908181526020018280548015611f8457602002820191906000526020600020905b815481526020019060010190808311611f70575b5050505050815260200160048201805480602002602001604051908101604052809291908181526020018280548015611fdc57602002820191906000526020600020905b815481526020019060010190808311611fc8575b505050505081525050915050919050565b600101611e36565b5060405162ab3d0d60e81b815260040160405180910390fd5b6000546001600160a01b03163314610cb35760405163118cdaa760e01b8152336004820152602401610767565b60008060008061204b8686612455565b92509250925061205b82826124a2565b5090949350505050565b600080546001600160a01b038381166001600160a01b0319831681178455604051919092169283917f8be0079c531659141344cd1fd0a4f28419497f9722a3daafe3b4186f6b6457e09190a35050565b60008030878787876040516120cb929190612f83565b60405190819003902060018054889160006120e583612f6a565b909155506040516bffffffffffffffffffffffff19606097881b811660208301529590961b909416603486015260488501929092526068840152608883015260a88201524660c882015260e80160408051808303601f190181529190528051602090910120979650505050505050565b60025460005b81811015612451576000612170826001612f93565b90505b82811015612448576002818154811061218e5761218e612e9d565b906000526020600020906005020160000154600283815481106121b3576121b3612e9d565b9060005260206000209060050201600001541115612440576000600283815481106121e0576121e0612e9d565b90600052602060002090600502016040518060a001604052908160008201548152602001600182015481526020016002820180548060200260200160405190810160405280929190818152602001828054801561225c57602002820191906000526020600020905b815481526020019060010190808311612248575b50505050508152602001600382018054806020026020016040519081016040528092919081815260200182805480156122b457602002820191906000526020600020905b8154815260200190600101908083116122a0575b505050505081526020016004820180548060200260200160405190810160405280929190818152602001828054801561230c57602002820191906000526020600020905b8154815260200190600101908083116122f8575b50505050508152505090506002828154811061232a5761232a612e9d565b90600052602060002090600502016002848154811061234b5761234b612e9d565b906000526020600020906005020160008201548160000155600182015481600101556002820181600201908054612383929190612740565b50600382810180546123989284019190612740565b50600482810180546123ad9284019190612740565b5090505080600283815481106123c5576123c5612e9d565b9060005260206000209060050201600082015181600001556020820151816001015560408201518160020190805190602001906124039291906126f5565b506060820151805161241f9160038401916020909101906126f5565b506080820151805161243b9160048401916020909101906126f5565b505050505b600101612173565b5060010161215b565b5050565b6000806000835160410361248f5760208401516040850151606086015160001a6124818882858561255b565b95509550955050505061249b565b50508151600091506002905b9250925092565b60008260038111156124b6576124b6612fa6565b036124bf575050565b60018260038111156124d3576124d3612fa6565b036124f15760405163f645eedf60e01b815260040160405180910390fd5b600282600381111561250557612505612fa6565b036125265760405163fce698f760e01b815260048101829052602401610767565b600382600381111561253a5761253a612fa6565b03612451576040516335e2f38360e21b815260048101829052602401610767565b600080807f7fffffffffffffffffffffffffffffff5d576e7357a4501ddfe92f46681b20a08411156125965750600091506003905082612620565b604080516000808252602082018084528a905260ff891692820192909252606081018790526080810186905260019060a0016020604051602081039080840390855afa1580156125ea573d6000803e3d6000fd5b5050604051601f1901519150506001600160a01b03811661261657506000925060019150829050612620565b9250600091508190505b9450945094915050565b6040518060a0016040528060008152602001600081526020016060815260200160608152602001606081525090565b50805461266590612d04565b6000825580601f10612675575050565b601f0160209004906000526020600020908101906117059190612780565b50805460008255906000526020600020908101906117059190612780565b6040518060c0016040528060006001600160a01b03168152602001600081526020016060815260200160008152602001600081526020016126f061262a565b905290565b828054828255906000526020600020908101928215612730579160200282015b82811115612730578251825591602001919060010190612715565b5061273c929150612780565b5090565b8280548282559060005260206000209081019282156127305760005260206000209182015b82811115612730578254825591600101919060010190612765565b5b8082111561273c5760008155600101612781565b6000602082840312156127a757600080fd5b5035919050565b600081518084526020840193506020830160005b828110156127e05781518652602095860195909101906001016127c2565b5093949350505050565b80518252602081015160208301526000604082015160a0604085015261281360a08501826127ae565b90506060830151848203606086015261282c82826127ae565b9150506080830151848203608086015261284682826127ae565b95945050505050565b60208152600061077960208301846127ea565b80356001600160a01b038116811461287957600080fd5b919050565b6000806040838503121561289157600080fd5b823591506128a160208401612862565b90509250929050565b6000806000606084860312156128bf57600080fd5b83356001600160401b038111156128d557600080fd5b840161012081870312156128e857600080fd5b95602085013595506040909401359392505050565b60008060006060848603121561291257600080fd5b833592506020840135915061292960408501612862565b90509250925092565b60005b8381101561294d578181015183820152602001612935565b50506000910152565b6000815180845261296e816020860160208601612932565b601f01601f19169290920160200192915050565b6020815260018060a01b038251166020820152602082015160408201526000604083015160c060608401526129ba60e0840182612956565b905060608401516080840152608084015160a084015260a0840151601f198483030160c085015261284682826127ea565b60018060a01b038716815285602082015260c060408201526000612a1260c0830187612956565b85606084015284608084015282810360a0840152612a3081856127ea565b9998505050505050505050565b600080600080600060808688031215612a5557600080fd5b612a5e86612862565b94506020860135935060408601356001600160401b03811115612a8057600080fd5b8601601f81018813612a9157600080fd5b80356001600160401b03811115612aa757600080fd5b886020828401011115612ab957600080fd5b959894975060200195606001359392505050565b60008083601f840112612adf57600080fd5b5081356001600160401b03811115612af657600080fd5b6020830191508360208260051b8501011115612b1157600080fd5b9250929050565b60008060008060008060008060a0898b031215612b3457600080fd5b883597506020890135965060408901356001600160401b03811115612b5857600080fd5b612b648b828c01612acd565b90975095505060608901356001600160401b03811115612b8357600080fd5b612b8f8b828c01612acd565b90955093505060808901356001600160401b03811115612bae57600080fd5b612bba8b828c01612acd565b999c989b5096995094979396929594505050565b6000806000806000806000806080898b031215612bea57600080fd5b88356001600160401b03811115612c0057600080fd5b612c0c8b828c01612acd565b90995097505060208901356001600160401b03811115612c2b57600080fd5b612c378b828c01612acd565b90975095505060408901356001600160401b03811115612c5657600080fd5b612c628b828c01612acd565b90955093505060608901356001600160401b03811115612bae57600080fd5b600060208284031215612c9357600080fd5b61077982612862565b60008060408385031215612caf57600080fd5b50508035926020909101359150565b6000808335601e19843603018112612cd557600080fd5b8301803591506001600160401b03821115612cef57600080fd5b602001915036819003821315612b1157600080fd5b600181811c90821680612d1857607f821691505b602082108103612d3857634e487b7160e01b600052602260045260246000fd5b50919050565b634e487b7160e01b600052604160045260246000fd5b601f821115612d9e57806000526020600020601f840160051c81016020851015612d7b5750805b601f840160051c820191505b81811015612d9b5760008155600101612d87565b50505b505050565b81516001600160401b03811115612dbc57612dbc612d3e565b612dd081612dca8454612d04565b84612d54565b6020601f821160018114612e045760008315612dec5750848201515b600019600385901b1c1916600184901b178455612d9b565b600084815260208120601f198516915b82811015612e345787850151825560209485019460019092019101612e14565b5084821015612e525786840151600019600387901b60f8161c191681555b50505050600190811b01905550565b848152836020820152608060408201526000612e8060808301856127ae565b8281036060840152612e9281856127ae565b979650505050505050565b634e487b7160e01b600052603260045260246000fd5b634e487b7160e01b600052601160045260246000fd5b8181038181111561054457610544612eb3565b84815260208101849052606060408201819052810182905260006001600160fb1b03831115612f0a57600080fd5b8260051b808560808501379190910160800195945050505050565b60008251612f37818460208701612932565b9190910192915050565b6020815260006107796020830184612956565b634e487b7160e01b600052603160045260246000fd5b600060018201612f7c57612f7c612eb3565b5060010190565b8183823760009101908152919050565b8082018082111561054457610544612eb3565b634e487b7160e01b600052602160045260246000fdfea2646970667358221220307c131e981b6aef49f0179315d9138435b77f5ba964b5c07346d65541ec6aea64736f6c634300081c0033",
  "linkReferences": {},
  "deployedLinkReferences": {}
}